:1000000032C00000FDCF0000FBCF0000F9CF0000A0
:10001000F7CF0000F5CF0000F3CF0000F1CF0000D4
:10002000EFCF0000EDCF0000EBCF0000E9CF0000E4
:10003000E7CF000020C00000E3CF0000E1CF0000C8
:10004000DFCF0000DDCF000011C00000D9CF0000DD
:10005000D7CF0000D5CF0000D3CF0000D1CF000014
:06006000CFCF0000CDCF60
:10006600E6EAF5E10994EF93FF93E8E7F5E10994F1
:0A007600EF93FF93E5E4F5E1099430
:102B4C00BFEFBDBFB8E0BEBF66D2CDB7DEB724972E
:102B5C00CDBFDEBF21962F923F924F925F92B4B1C0
:102B6C00B062B4B9E7DDFCDDBFB7B068BFBF13DE40
:102B7C00B1E02B2E7BDDBCE02B2E78DDB8E04B2EAC
:102B8C00B1E05B2EB1E03B2EB1E02B2E23DDBCE49B
:102B9C002B2E18DDB1E42B2E15DDBBE42B2E12DD14
:102BAC00B3E52B2E0FDDB8E42B2E0CDDBDE42B2E64
:102BBC0009DDB9E42B2E06DDB5B1BF7DB5B918DF43
:102BCC00B0E0B0933501BFB7BF77BFBFB091C100C4
:102BDC00BF7EB093C100B8E04B2EB9E12B2EB1E013
:102BEC003B2EF0DEBFB7B068BFBFB091C100B06183
:102BFC00B093C10022E51BE200E00A95F1F71A95AB
:102C0C00E1F72A95D1F700000000000000000091C8
:102C1C006E010338B9F000916D01003099F000910C
:102C2C007001302F22270091710110E0022B132B21
:102C3C000093330110933401B0913001B160B09323
:102C4C00300105C0B0913001BE7FB0933001D0DEB1
:102C5C00B0E0B0933501BFB7BF77BFBFB091C10033
:102C6C00BF7EB093C100B8E04B2EB0E02B2EB1E08C
:102C7C003B2EA8DEBFB7B068BFBFB091C100B0613A
:102C8C00B093C10022E51BE200E00A95F1F71A951A
:102C9C00E1F72A95D1F70000000000000000009138
:102CAC006E010338B9F000916D01003099F000917C
:102CBC007001302F22270091710110E0022B132B91
:102CCC000093310110933201B0913001B160B09397
:102CDC00300105C0B0913001BE7FB093300188DE69
:102CEC00B0E0B0933501BFB7BF77BFBFB091C100A3
:102CFC00BF7EB093C100B8E04B2EB8E22B2EB1E0F2
:102D0C003B2E60DEBFB7B068BFBFB091C100B061F1
:102D1C00B093C10022E51BE200E00A95F1F71A9589
:102D2C00E1F72A95D1F700000000000000000091A7
:102D3C006E010338B9F000916D01003099F00091EB
:102D4C007001302F22270091710110E0022B132B00
:102D5C000093380110933901B0913001B160B093F8
:102D6C00300105C0B0913001BE7FB093300140DE20
:102D7C00B0913001B0FF7CC0009131011091320153
:102D8C0020E0322FEDE0F2E0099540E050E060E207
:102D9C0071E4EEE6F2E00995409138015091390169
:102DAC005F934F933F932F931F930F930091330196
:102DBC00109134011F930F93BFE2BF93BDEDBF93EE
:102DCC00B1E0BF93BAE3BF9323DEADB7BEB71C9699
:102DDC00ADBFBEBF009138011091390120E0322FF8
:102DEC00EDE0F2E0099540E050E068EC72E4EEE6CC
:102DFC00F2E00995088319832A833B830091310102
:102E0C001091320120E0322FEDE0F2E0099540E024
:102E1C0050E060E271E4EEE6F2E0099548815981F8
:102E2C006A817B817F936F935F934F933F932F9333
:102E3C001F930F9300913301109134011F930F9343
:102E4C00BFE2BF93BAECBF93B1E0BF93BAE3BF93B9
:102E5C00DFDDADB7BEB71E96ADBFBEBFBAE34B2E1E
:102E6C00B1E05B2EB1E03B2EB2E02B2EB3DB17C0F2
:102E7C00BFE2BF93BFEFBF93B1E0BF93BAE3BF9381
:102E8C00C7DDADB7BEB71496ADBFBEBFBAE34B2E10
:102E9C00B1E05B2EB1E03B2EB2E02B2E9BDB90CE53
:0A2EAC005F904F903F902F90FFCFF2
:10274000B7E6B093C400B0E0B093C500B091C1004B
:10275000B860B093C100B091C100B061B093C10046
:0C276000B091C100B068B093C1000895B2
:10276C00B0918100BE7FB0938100B0918100B260C6
:10277C00B0938100B0918100BB7FB0938100B09188
:10278C006F00B160B0936F00B0E0B0938500B0E023
:06279C00B09384000895D3
:1027A200B0912800BB7FB0932800B0912800B77F7A
:1027B200B0932800B0912500BD7FB0932500B09161
:1027C2002500BB7FB0932500B0912500B77FB09361
:1027D2002500B0912500BF7EB0932500B09127005F
:1027E200B460B0932700B0912700B860B09327007F
:1027F200B0912400B061B0932400B0912400B8607D
:10280200B0932400B0912400B460B0932400B0913E
:102812002400B260B0932400CDDECCDECBDEB091DA
:102822002500B860B0932500B0912500B061B09347
:102832002500B0912800B460B0932800C3DEB091A7
:102842002800BB7FB0932800B5DEB0912800B460A9
:10285200B0932800B7DEB0912800BB7FB093280068
:10286200A9DEB0912800B460B0932800ABDEB0912D
:102872002800BB7FB09328009DDEB0912500BF7E6B
:10288200B0932500B0912800B460B09328009ADE7E
:10289200B0912800BB7FB09328008CDEB091280055
:1028A200B460B09328008EDEB0912800BB7FB09355
:1028B2002800B0912500B77FB0932500B091250084
:1028C200B260B0932500B0912800B460B0932800A4
:1028D20079DEB0912800BB7FB09328006BDEB09107
:1028E2002500BD7FB0932500B0912500B061B09363
:1028F2002500B0912800B460B093280063DEB09147
:102902002800BB7FB0932800B0912500BF7EB09312
:102912002500B0912800B460B093280053DEB09136
:102922002800BB7FB093280045DEB0912800B46038
:10293200B093280047DEB0912800BB7FB0932800F7
:10294200B0912500B061B0932500B0912800B46029
:10295200B093280037DEB0912800BB7FB0932800E7
:1029620029DEB0912500BF7EB0932500B0912800EA
:10297200B460B093280026DEB0912800BB7FB093EC
:102982002800B0912500B260B0932500B0912500D7
:10299200B460B0932500B0912500B860B0932500D3
:1029A200B0912500B061B0932500B0912800B460C9
:1029B200B093280007DEB0912800BB7FB0932800B7
:0E29C200F9DDB0913001B460B093300108959A
:1025B60013E708E40A95F1F71A95E1F70000089584
:0025C60015
:0A25C60005E00A95F1F70000089502
:1026780027FAB0912500B1F9B093250026FAB09158
:102688002500B2F9B093250025FAB0912500B3F9D9
:10269800B093250024FAB0912500B4F9B093250031
:1026A800B091300100902800E894B2FF689403F8D4
:1026B80000922800B0912800B460B09328007FDF12
:1026C800B0912800BB7FB093280023FAB091250071
:1026D800B1F9B093250022FAB0912500B2F9B09370
:1026E800250021FAB0912500B3F9B093250020FA0E
:1026F800B0912500B4F9B0932500B0913001009055
:102708002800E894B2FF689403F800922800B0917A
:102718002800B460B093280052DFB0912800BB7F36
:10272800B0932800B0913001B2FF02C040DF03C06F
:08273800E2EFF4E009950895B9
:0E09E40012E009E00A95F1F71A95E1F708957F
:1025E0002F920FC0B0E82B2E19C0B0EC2B2E16C0C6
:1025F000B4E92B2E13C0B4ED2B2E10C0B0E82B2E57
:102600000DC0B1E02B1671F3B2E02B1671F3B3E0FD
:102610002B1671F3B4E02B1671F3F0CF032D01509C
:10262000020D202E202E28D0B0913001BB7FB09318
:10263000300110E0E12FF0E0E40DF51D00810023F2
:1026400079F0E12FF0E0E40DF51D00811F932F924A
:10265000202EA5DF2F901F91012F0F5F102FEACFA3
:0E266000B0913001B460B09330012F90089516
:10259E00B0913001BB7FB093300167D0B091300164
:0825AE00B460B0933001089500
:1025D0002092C600B091C000B5FD01C0FBCF0895A8
:0025E000FB
:1029FC0020E0243160F40CE611E0E22FF0E0E00F6F
:102A0C00F11FB0E0B083022F0F5F202FF2CF08959B
:002A1C00BA
:1029D00010E0442091F0042D0150402EE12FF0E052
:1029E000E20DF31D00813F922F92202EF1DD2F90FA
:0C29F0003F90012F0F5F102FECCF0895D7
:102A1C00CF93DF93CDB7DEB72297CDBFDEBF219624
:102A2C002F923F924F925F926F927F922E813F81B5
:102A3C00FE018E01085F1F4F0E5F1F4F0193119314
:102A4C008E013F932F933801488459841901E9EF83
:102A5C00F4E009952F913F91A801F801E20FF31FC3
:102A6C00B0E0B0838A017F906F905F904F903F9061
:0E2A7C002F902196CDBFDEBFDF91CF91089540
:1009F200CF93DF93CDB7DEB7A397CDBFDEBF2196EE
:100A0200B0E0B98FBA8FF20182010F5F1F4F280148
:100A120004910A87002319F4E7ECF2E109940A85AC
:100A2200053271F00A85F101008381010F5F1F4FCA
:100A32001801098D1A8D0F5F1F4F098F1A8FE3CF8F
:100A4200B0E0BB87BC87B0E0BD87BE8732C00D85F2
:100A52001E8508600D871E8782010F5F1F4F2801C8
:100A62003DC00D851E8501600D871E8782010F5FC7
:100A72001F4F280133C00D851E8502600D871E871A
:100A820082010F5F1F4F280129C00D851E85186046
:100A92000D871E8782010F5F1F4F28011FC00D8522
:100AA2001E8504600D871E8782010F5F1F4F28017C
:100AB20015C0F20104910D3251F2F201049100329B
:100AC20081F2F20104910B32B1F2F201049103328C
:100AD200E1F2F2010491003311F301C0B7CF0D85A9
:100AE2001E8501FF05C00D851E850E7F0D871E87A1
:100AF2000D851E8503FF05C00D851E850B7F0D87A5
:100B02001E87F201049110E03F922F92202E02DD07
:100B12002F903F90002309F1B0E0BB87BC870B8583
:100B22001C854AE050E0E3DCF2012491020FB0E0C0
:100B32001B1F005310400B871C8782010F5F1F4F42
:100B42002801F801049110E03F922F92202EE2DC5E
:100B52002F903F90002319F716C0F20104910A3238
:100B620091F4F30121913191F901019111910B87D6
:100B72001C8789010E5F1F4FF301019311938201BC
:100B82000F5F1F4F2801F20104910E3209F03DC0A0
:100B920082010F5F1F4F2801F80104910A3299F474
:100BA200F30121913191F90101911191088719877E
:100BB20089010E5F1F4FF3010193119382010F5FB1
:100BC2001F4F280121C0B0E0B887B987F201049114
:100BD20010E03F922F92202E9DDC2F903F90002319
:100BE20099F0088519854AE050E081DCF2012491F0
:100BF200020FB0E01B1F00531040088719878201C3
:100C02000F5F1F4F2801E2CF08C0B0E0B887B98755
:100C12000D851E8510610D871E87F20182010F5F0F
:100C22001F4F280104910A87FFC0098D1A8DE9EC34
:100C3200F2E109940D851E8500610D871E87EDCFB7
:100C42000D851E8514600D871E872FC10D851E859B
:100C520000620D871E870D851E8511600D871E8718
:100C620024C10D851E8512600D871E871EC10D854C
:100C72001E8500640D871E8718C117C10D851E854C
:100C820000620D871E870D851E8500680D871E87F1
:100C92000CC1F30101911191F801019111910D8B98
:100CA2001E8BF301019111910E5F1F4FF30101930E
:100CB20011930D891E89103009F4003021F4B1E23C
:100CC200BD8BB1E0BE8BB0E0BF8BB88F2D893E8962
:100CD2000F89188DF801E20FF31F0081002339F00C
:100CE2000F89188D0F5F1F4F0F8B188FEFCF08855D
:100CF2001985B02FB12B59F0288539850F89188DA8
:100D02002017310720F4088519850F8B188F2B8542
:100D12003C850F89188D0217130748F40F88188C29
:100D22000B851C85001911090B871C8703C0B0E0D5
:100D3200BB87BC870D851E8503FD19C02B853C85AD
:100D42000B851C85015010400B871C87B22FB32BDB
:100D520071F0F101B0E2B08381010F5F1F4F180102
:100D6200098D1A8D0F5F1F4F098F1A8FE7CF2F89B9
:100D7200388D0F89188D015010400F8B188FB22FAC
:100D8200B32BB1F0ED89FE890081F101008381016D
:100D92000F5F1F4F18010D891E890F5F1F4F0D8BAB
:100DA2001E8B098D1A8D0F5F1F4F098F1A8FDFCF90
:100DB2000D851E8503FF19C02B853C850B851C857F
:100DC200015010400B871C87B22FB32B71F0F10139
:100DD200B0E2B08381010F5F1F4F1801098D1A8D98
:100DE2000F5F1F4F098F1A8FE7CF0DCEF3010191CD
:100DF2001191F80100810A87F301019111910E5FAF
:100E02001F4FF301019311938E01065F1F4F0D8B4C
:100E12001E8BB1E0BF8BB0E0B88F69CF0D851E8508
:100E2200006C0D871E8741C00A85003009F4FDCE93
:100E32000A850C3609F4FECE0A850C3409F4FACE82
:100E42000A85063609F4FCCE0A85053409F4FECE7D
:100E52000A85053609F4FFCE0A85073609F401CF63
:100E62000A850F3609F403CF0A85043609F405CF43
:100E72000A85093609F401CF0A85003709F4FECE46
:100E82000A85083509F4FACE0A85083709F4FBCE3B
:100E92000A85033709F4FDCE0A85033609F4A6CF85
:100EA2000A85053709F4BACFAFCF0D851E850070CC
:100EB2001770B02FB12B19F4EBE4FFE009940D8504
:100EC2001E8514FF04C0B6E0B887B0E0B987F3010D
:100ED20001911191F80101911191219131910F87A5
:100EE200188B298B3A8BF301019111910C5F1F4FE3
:100EF200F301019311933F922F9240E050E060E0A2
:100F020070E00F85188929893A8975DA002800E08E
:100F120009F001E02F903F900023A9F00F85188976
:100F220029893A89B0E00B27B0E01B27B0E02B27D4
:100F3200B0E83B270F87188B298B3A8B0D851E85CE
:100F420003600D871E87B0E0BB8BBC8B3F922F9254
:100F52000F85188929893A8940E050E060E070E005
:100F620091DA002800E009F001E02F903F90002381
:100F720009F48BC0AE014D5E5F4FFE013F960191B9
:100F8200119121913191B7E13695279517950795E2
:100F9200BA95D1F710700E571040FA0101931193D0
:100FA2000B891C89015010400B8B1C8B43E050E0D5
:100FB2009EDA0B8B1C8B7F926F925F924F923F92C5
:100FC2002F924AE050E080D98B012F903F904F90B2
:100FD2005F906F907F900B8B1C8B20E030E00217AC
:100FE200130734F40B891C89015010400B8B1C8BA6
:100FF2000B8800E000197F926F925F924F923F92AE
:101002002F92202E91DA2F903F904F905F906F9009
:101012007F903F922F924F85588969897A893ED96C
:101022000D8B1E8B2F8B388F40E050E060E87FE302
:101032000D891E892F89388DDED9002800E009F03C
:1010420001E02F903F90002339F00B891C89015059
:1010520010400B8B1C8B19C03F922F9240E050E046
:1010620060E271E40D891E892F89388D04DA002827
:1010720000E009F001E02F903F90002331F00B894E
:101082001C890F5F1F4F0B8B1C8B2B893C8900E047
:1010920010E0021713071CF0B1E0BA8702C00B89F7
:1010A2000A870D851E8510FD15C00D851E8511FF51
:1010B20010C02B893C890CEF1FEF2017310744F039
:1010C2002B893C8908851985201731070CF401C04A
:1010D20001C05CC308851985B02FB12B51F00D8575
:1010E2001E8511FF06C0088519850150104008872A
:1010F20019872885398508E010E00217130718F4CC
:10110200B8E0BA8702C008850A873F922F920F85FE
:10111200188929893A8940E050E060E070E0B2D94C
:10112200002800E009F001E02F903F90002309F42D
:10113200B8C07F926F925F924F923F922F922B880C
:10114200F3D9A801B9010F85188929893A89C5D926
:101152000F87188B298B3A8B0A8400E00019202E06
:10116200E3D9A801B9010F85188929893A89B5D926
:101172002F903F904F905F906F907F900F87188BCA
:10118200298B3A8B86D948D93F922F92A801B9016F
:101192000F85188929893A8935D940E050E060E005
:1011A2007FE369D90028B0E009F0B1E00B2F2F905E
:1011B2003F90002389F03F922F920F851889298949
:1011C2003A8940E050E060E07FE34BD92F903F90B6
:1011D2000F87188B298B3A8B0F85188929893A89B1
:1011E20058D94A8550E04F5F5F4FBA01660F771FAB
:1011F200660F771F42E85FE2FB01E40FF51F45919E
:101202005591659175910417150726073707C0F0A8
:101212003F922F920F85188929893A894DEC5CEC0F
:101222006CEC7DE33BD82F903F900F87188B298B76
:101232003A8B0B891C890F5F1F4F0B8B1C8B31C0A4
:101242000F85188929893A8924D94A85642F70E043
:10125200660F771F660F771F42E85FE2FB01E40F1C
:10126200F51F45915591659175910417150726074C
:101272003707B8F43F922F920F85188929893A8946
:1012820040E050E060E271E409D82F903F900F8770
:10129200188B298B3A8B0B891C89015010400B8BC0
:1012A2001C8B0D851E8511FF6FC00D851E8513FDDC
:1012B2006BC0288539850AE010E00217130724F471
:1012C200BAE0B887B0E0B9870F85188929893A89C9
:1012D200E0D80D8B1E8B2F8B388F0D891E892F899D
:1012E200388DB02FB12BB22BB32B49F14AE050E02D
:1012F20060E070E00D891E892F89388D90D88D01AC
:101302009F01303029F4203019F4103009F40030F4
:10131200B1F40885198501501040088719874AE001
:1013220050E060E070E00D891E892F89388D77D8F2
:101332008B019C010D8B1E8B2F8B388FCECF188586
:1013420029850A851017B0E02B07F4F408840A8572
:1013520000197F926F925F924F923F922F92202EAE
:10136200E3D8A801B9010F85188929893A89B5D826
:101372002F903F904F905F906F907F900F87188BC8
:10138200298B3A8B08850A872885398589010B5F65
:101392001F4F08010B851C85001911090B871C873B
:1013A200B22FB32B29F40D851E8513FD01C006C093
:1013B2000B851C85015010400B871C870D851E85EF
:1013C20003701070B02FB12B31F00B851C850150CA
:1013D20010400B871C870D851E8502FF48C00D85B6
:1013E2001E8501FF17C00D851E8500FF03C0BDE2EB
:1013F200B88302C0BBE2B8830881F1010083810196
:101402000F5F1F4F1801098D1A8D0F5F1F4F098F34
:101412001A8F11C00D851E8500FF0DC0F101B0E2CB
:10142200B08381010F5F1F4F1801098D1A8D0F5F65
:101432001F4F098F1A8F2B853C8500E010E00217A1
:101442001307A4F4F101B0E3B08381010F5F1F4FD2
:101452001801098D1A8D0F5F1F4F098F1A8F0B8587
:101462001C85015010400B871C87E5CF4BC00D85B2
:101472001E8503FD1BC02B853C8500E010E0021792
:101482001307A4F4F101B0E2B08381010F5F1F4F93
:101492001801098D1A8D0F5F1F4F098F1A8F0B8547
:1014A2001C85015010400B871C87E5CF0D851E85DA
:1014B20001FF17C00D851E8500FF03C0BDE2B98381
:1014C20002C0BBE2B9830981F101008381010F5F90
:1014D2001F4F1801098D1A8D0F5F1F4F098F1A8F29
:1014E20011C00D851E8500FF0DC0F101B0E2B08371
:1014F20081010F5F1F4F1801098D1A8D0F5F1F4F5A
:10150200098F1A8F0F85188929893A89EAE4F2E04E
:1015120009950D8B1E8B2F8B388F0A85202F30E07B
:10152200220F331F220F331F02E81FE2F901E00FDF
:10153200F11F45915591659175910D891E892F89EC
:10154200388DE0E1F2E009958B019C01005DF1012B
:10155200008381010F5F1F4F1801098D1A8D0F5FE4
:101562001F4F098F1A8F08851985B02FB12B29F4C7
:101572000D851E8513FD01C064C0F101BEE2B0837A
:1015820081010F5F1F4F1801098D1A8D0F5F1F4FC9
:10159200098F1A8F0A84B0E01B2E0885198500195D
:1015A2001109088719870A85002391F10A850150DC
:1015B2000A87202F30E0220F331F220F331F02E849
:1015C2001FE2F901E00FF11F459155916591759167
:1015D2000D891E892F89388DE0E1F2E009958B0192
:1015E2009C014AE050E060E070E0E0E1F2E0099541
:1015F2008D019F01005DF101008381010F5F1F4F8B
:101602001801098D1A8D0F5F1F4F098F1A8FCBCFCB
:1016120008851985B02FB12BA1F0F101B0E3B08399
:1016220081010F5F1F4F1801098D1A8D0F5F1F4F28
:10163200098F1A8F0885198501501040088719876C
:10164200E7CF0D851E8505FF0EC0F101B5E4B0831D
:1016520081010F5F1F4F1801098D1A8D0F5F1F4FF8
:10166200098F1A8F0DC0F101B5E6B08381010F5FBA
:101672001F4F1801098D1A8D0F5F1F4F098F1A8F87
:101682002B893C8900E010E020173107B4F40B8865
:101692001C8800E010E0001911090B8B1C8BF10172
:1016A200BDE2B08381010F5F1F4F1801098D1A8DB2
:1016B2000F5F1F4F098F1A8F0DC0F101BBE2B0837C
:1016C20081010F5F1F4F1801098D1A8D0F5F1F4F88
:1016D200098F1A8F7F926F925F924F923F922F9251
:1016E2004AE050E00B891C89E5E6F1E009958B019F
:1016F2002F903F90005DF101008381010F5F1F4F2A
:101702001801098D1A8D0F5F1F4F098F1A8F3F9293
:101712002F924AE050E00B891C89E5E6F1E0099539
:101722008C012F903F904F905F906F907F90005D63
:10173200F101008381010F5F1F4F1801098D1A8D7E
:101742000F5F1F4F098F1A8F0D851E8503FF1DC066
:101752002B853C8500E010E002171307B4F4F10179
:10176200B0E2B08381010F5F1F4F1801098D1A8DFE
:101772000F5F1F4F098F1A8F0B851C850150104078
:101782000B871C87B02FB12B51F73DC90D851E85E4
:1017920011FFBCC02B893C8900E010E02017310703
:1017A2005CF40B891C8901501040080108851985D9
:1017B20000191109088719870F85188929893A891B
:1017C200EAE4F2E009950D8B1E8B2F8B388FB1E086
:1017D200BA870A850A30F1F00A85202F30E0220FFD
:1017E200331F220F331F02E81FE2F901E00FF11F3E
:1017F20045915591659175910D891E892F89388D75
:10180200041715072607370708F404C00A850F5F77
:101812000A87DFCF0A84B0E01B2E088519850019DC
:101822001109088719870D891E892F89388DEDE0E6
:10183200F2E009953F922F92A801B9010F8518890C
:1018420029893A89E3E0F2E009952F903F900F8FC2
:1018520018A329A33AA37F926F925F924F923F926D
:101862002F922884E5E9F2E009952F903F904F905E
:101872005F906F907F904F8D58A169A17AA13F929E
:101882002F92EFE4F1E0099540E050E060E07FE361
:10189200E2E3F2E009952F903F90EAE4F2E0099545
:1018A2000D8B1E8B2F8B388F08851985B02FB12B8E
:1018B20069F14AE050E060E070E00D891E892F89ED
:1018C200388DE0E1F2E009958D019F01303029F475
:1018D200203019F4103009F40030C1F44AE050E02D
:1018E20060E070E00D891E892F89388DE0E1F2E019
:1018F20009958B019C010D8B1E8B2F8B388F0885D0
:1019020019850150104008871987CECF288539855F
:101912000CE010E0021713079CF03F922F922884EC
:10192200E6E3F4E009954F85588969897A89E2E30B
:10193200F2E009952F903F900F87188B298B3A8BF5
:101942003F922F920F85188929893A8940E050E009
:1019520060E070E0E3E4F2E00995002800E009F0BD
:1019620001E02F903F90002309F476C00F8518897B
:1019720029893A89EAE4F2E00995303029F42030E5
:1019820019F4103009F4003009F066C02B893C8943
:1019920001E010E0021713070CF05EC07F926F9215
:1019A2005F924F923F922F922B88E5E9F2E00995E0
:1019B200A801B9010F85188929893A89EEE6F2E072
:1019C20009952F903F904F905F906F907F903F923C
:1019D2002F924FE550E769E870E4ECEFF1E00995EA
:1019E2000028B0E009F0B1E00B2F2F903F900023C8
:1019F20039F00B891C89095010400B8B1C8B06C0D7
:101A02000B891C89085010400B8B1C8B7F926F92A4
:101A12005F924F923F922F922B88E5E9F2E009956F
:101A2200A801B9010F85188929893A89EEE6F2E001
:101A320009952F903F904F905F906F907F90EAE4CE
:101A4200F2E009950D8B1E8B2F8B388FB0E0BF878C
:101A5200B88BB98BBA8B26C00F85188929893A8928
:101A6200EAE4F2E009950D8B1E8B2F8B388F0D89DE
:101A72001E892F89388DEDE0F2E009953F922F9271
:101A8200A801B9010F85188929893A89E3E0F2E0B2
:101A920009952F903F900F87188B298B3A8BB0E0D6
:101AA200BB8BBC8BB1E0BA870A850A30F1F00A859C
:101AB200202F30E0220F331F220F331F02E81FE2D4
:101AC200F901E00FF11F45915591659175910D89CD
:101AD2001E892F89388D041715072607370708F442
:101AE20004C00A850F5F0A87DFCF488559850A85BA
:101AF200202F30E0240F351F0B891C89020F131F82
:101B020008010B851C85001911090B871C870D859F
:101B12001E8513FD06C008851985B02FB12B09F467
:101B220006C00B851C85015010400B871C870D8554
:101B32001E8503701070B02FB12B31F00B851C8500
:101B4200015010400B871C870D851E8502FF48C07F
:101B52000D851E8501FF17C00D851E8500FF03C080
:101B6200BDE2BA8302C0BBE2BA830A81F1010083FB
:101B720081010F5F1F4F1801098D1A8D0F5F1F4FD3
:101B8200098F1A8F11C00D851E8500FF0DC0F1014E
:101B9200B0E2B08381010F5F1F4F1801098D1A8DCA
:101BA2000F5F1F4F098F1A8F2B853C8500E010E0D5
:101BB20002171307A4F4F101B0E3B08381010F5FB0
:101BC2001F4F1801098D1A8D0F5F1F4F098F1A8F32
:101BD2000B851C85015010400B871C87E5CF4BC03D
:101BE2000D851E8503FD1BC02B853C8500E010E0A2
:101BF20002171307A4F4F101B0E2B08381010F5F71
:101C02001F4F1801098D1A8D0F5F1F4F098F1A8FF1
:101C12000B851C85015010400B871C87E5CF0D8575
:101C22001E8501FF17C00D851E8500FF03C0BDE2A2
:101C3200BB8302C0BBE2BB830B81F1010083810144
:101C42000F5F1F4F1801098D1A8D0F5F1F4F098FEC
:101C52001A8F11C00D851E8500FF0DC0F101B0E283
:101C6200B08381010F5F1F4F1801098D1A8D0F5F1D
:101C72001F4F098F1A8F1A850A8501500A8711236F
:101C820081F10A85202F30E0220F331F220F331FEC
:101C920002E81FE2F901E00FF11F459155916591AC
:101CA20075910D891E892F89388DE0E1F2E0099541
:101CB2008B019C014AE050E060E070E0E0E1F2E07C
:101CC20009958D019F01005DF101008381010F5F84
:101CD2001F4F1801098D1A8D0F5F1F4F098F1A8F21
:101CE200CACF2B893C8900E010E002171307A4F445
:101CF200F101B0E3B08381010F5F1F4F1801098D1D
:101D02001A8D0F5F1F4F098F1A8F0B891C89015083
:101D120010400B8B1C8BE5CF2885398508E010E03D
:101D2200021713071CF4B8E0BA8702C008850A87B5
:101D32000A84B0E01B2E088519850019110908874D
:101D420019870A85002329F40D851E8513FD01C01C
:101D52000DC0F101BEE2B08381010F5F1F4F180178
:101D6200098D1A8D0F5F1F4F098F1A8F7F926F9205
:101D72005F924F923F922F922A84E5E9F2E0099511
:101D82002F903F904F905F906F907F903F922F9255
:101D92004F85588969897A89EFE4F1E009952F9096
:101DA2003F90EAE4F2E009950D8B1E8B2F8B388F62
:101DB2000A85002391F10A8501500A87202F30E01D
:101DC200220F331F220F331F02E81FE2F901E00F37
:101DD200F11F45915591659175910D891E892F8944
:101DE200388DE0E1F2E009958B019C014AE050E078
:101DF20060E070E0E0E1F2E009958D019F01005D95
:101E0200F101008381010F5F1F4F1801098D1A8DA7
:101E12000F5F1F4F098F1A8FCBCF08851985B02FFF
:101E2200B12BA1F0F101B0E3B08381010F5F1F4F2D
:101E32001801098D1A8D0F5F1F4F098F1A8F0885A0
:101E420019850150104008871987E7CF0D851E8537
:101E520003FF1DC02B853C8500E010E0021713072D
:101E6200B4F4F101B0E2B08381010F5F1F4F18019A
:101E7200098D1A8D0F5F1F4F098F1A8F0B851C85D5
:101E8200015010400B871C87B02FB12B51F7E4E0B3
:101E9200F5E009940D851E85007C1070103009F460
:101EA200003009F052C00D851E8504FF15C0F301F4
:101EB20001911191F80101911191219131910D8BB3
:101EC2001E8B2F8B388FF301019111910C5F1F4FE5
:101ED200F3010193119316C0F30101911191F801DD
:101EE2000191119120E017FD2FEF322F0D8B1E8BE8
:101EF2002F8B388FF301019111910E5F1F4FF30168
:101F0200019311934D895E896F89788D00E010E00D
:101F120020E030E04017510762077307ACF40D85EB
:101F22001E8503600D871E870D881E8800E010E065
:101F3200001911090F88188C20E030E020093109BE
:101F42000D8B1E8B2F8B388F2CC00D851E8504FFA9
:101F520015C0F30101911191F801019111912191A3
:101F620031910D8B1E8B2F8B388FF30101911191C3
:101F72000C5F1F4FF3010193119313C0F301019101
:101F82001191F801019111910D8B1E8BB0E0BF8B65
:101F9200B88FF301019111910E5F1F4FF30101936D
:101FA200119308851985103009F4003091F40D89D8
:101FB2001E892F89388D303029F4203019F41030E1
:101FC20009F4003031F4088519850F5F1F4F088727
:101FD20019870D85007C802F6CC0B1E0BA870A8515
:101FE2000A30F1F00A85202F30E0220F331F220F32
:101FF200331F02E81FE2F901E00FF11F45915591ED
:10200200659175910D891E892F89388D04171507E1
:102012002607370708F404C00A850F5F0A87DFCF57
:1020220053C0B1E0BA870A850830F1F00A85202F43
:1020320030E0220F331F220F331F0AEA1FE2F90199
:10204200E00FF11F45915591659175910D891E899A
:102052002F89388D041715072607370708F404C09F
:102062000A850F5F0A87DFCF2FC0B1E0BA870A85E2
:102072000C30F1F00A85202F30E0220F331F220F9F
:10208200331F02E21FE2F901E00FF11F4591559162
:10209200659175910D891E892F89388D0417150751
:1020A2002607370708F404C00A850F5F0A87DFCFC7
:1020B2000BC0803009F491CF803C09F48ECF803878
:1020C20009F4AFCF803489F20A852885398510E07A
:1020D200021713071CF408850A870BC01885298587
:1020E2000A851017B0E02B0724F40A850887B0E0B0
:1020F200B9870B851C85B02FB12B69F00D851E8524
:1021020003701070B02FB12B31F00B851C8501507C
:1021120010400B871C872B853C8508851985021783
:1021220013074CF4088419840B851C8500191109C6
:102132000B871C8703C0B0E0BB87BC870D851E855B
:10214200047C1870183009F4003461F40B851C8586
:10215200B02FB12B31F00B851C85015010400B873D
:102162001C8719C00D851E85007C1870183009F473
:10217200003889F42B853C8502E010E00217130732
:102182003CF40B851C85025010400B871C8703C052
:10219200B0E0BB87BC870D851E8502FF74C00D852C
:1021A2001E8501FF17C00D851E8500FF03C0BDE21D
:1021B200BC8302C0BBE2BC830C81F10100838101BC
:1021C2000F5F1F4F1801098D1A8D0F5F1F4F098F67
:1021D2001A8F3DC00D851E8500FF0EC0F101B0E2D1
:1021E200B08381010F5F1F4F1801098D1A8D0F5F98
:1021F2001F4F098F1A8F2BC00D851E85007C18700A
:10220200183009F4003819F5F101B0E3B083810107
:102212000F5F1F4F1801098D1A8D0F5F1F4F098F16
:102222001A8F0D851E8505FF03C0B8E5BD8302C068
:10223200B8E7BD830D81F101008381010F5F1F4F5C
:102242001801098D1A8D0F5F1F4F098F1A8F0B8589
:102252001C85B02FB12BB1F0F101B0E3B083810145
:102262000F5F1F4F1801098D1A8D0F5F1F4F098FC6
:102272001A8F0B851C85015010400B871C87B02FCD
:10228200B12B51F78CC00B851C85B02FB12BD1F02F
:102292000D851E8503FD16C0F101B0E2B0838101F8
:1022A2000F5F1F4F1801098D1A8D0F5F1F4F098F86
:1022B2001A8F0B851C85015010400B871C87B02F8D
:1022C200B12B51F70D851E8501FF17C00D851E85A7
:1022D20000FF03C0BDE2BE8302C0BBE2BE830E812B
:1022E200F101008381010F5F1F4F1801098D1A8DC3
:1022F2000F5F1F4F098F1A8F11C00D851E8500FFBA
:102302000DC0F101B0E2B08381010F5F1F4F1801D0
:10231200098D1A8D0F5F1F4F098F1A8F0D851E852C
:10232200007C1870183009F4003471F4F101B0E344
:10233200B08381010F5F1F4F1801098D1A8D0F5F46
:102342001F4F098F1A8F2BC00D851E85007C1870B8
:10235200183009F4003819F5F101B0E3B0838101B6
:102362000F5F1F4F1801098D1A8D0F5F1F4F098FC5
:102372001A8F0D851E8505FF03C0B8E5BF8302C015
:10238200B8E7BF830F81F101008381010F5F1F4F07
:102392001801098D1A8D0F5F1F4F098F1A8F28851B
:1023A20039850A8510E00217130774F4F101B0E3CE
:1023B200B08381010F5F1F4F1801098D1A8D0F5FC6
:1023C2001F4F098F1A8FEBCF28853985088519850C
:1023D2000150104008871987B22FB32B09F4B2C0FD
:1023E2000D85007C0F8F94C0088519859801220FF6
:1023F200331F220F331F02E81FE2F901E00FF11F22
:1024020045915591659175910D891E892F89388D58
:10241200E0E1F2E009958B019C014AE050E060E0C6
:1024220070E0E0E1F2E009958D019F01005D0A870D
:102432007BC00D851E8505FF27C00885198598017B
:10244200220F331F220F331F0AEA1FE2F901E00FA6
:10245200F11F45915591659175910D891E892F89BD
:10246200388DE0E1F2E009958B019C01A801B901E8
:102472004F7050706070707000E110E3F801E40F6B
:10248200F51F04910A8726C0088519859801220F35
:10249200331F220F331F0AEA1FE2F901E00FF11F77
:1024A20045915591659175910D891E892F89388DB8
:1024B200E0E1F2E009958B019C01A801B9014F709E
:1024C2005070607070700EEE1FE2F801E40FF51F9D
:1024D20004910A8729C0088519859801220F331FA4
:1024E200220F331F02E21FE2F901E00FF11F4591B3
:1024F2005591659175910D891E892F89388DE0E17D
:10250200F2E009958B019C010770005D0A870CC0FF
:102512000F8D003009F468CF003C09F465CF003814
:1025220009F487CF0034B9F20A85F10100838101F1
:102532000F5F1F4F1801098D1A8D0F5F1F4F098FF3
:102542001A8F42CF0D851E8503FF1DC02B853C854A
:1025520000E010E002171307B4F4F101B0E2B08317
:1025620081010F5F1F4F1801098D1A8D0F5F1F4FD9
:10257200098F1A8F0B851C85015010400B871C8711
:10258200B02FB12B51F7E4E0F5E00994098D1A8DD3
:0C259200A296CDBFDEBFDF91CF9108956F
:1005160009E3021528F0B0E32B1610F001E001C044
:0405260000E0089554
:10052A00CF93DF93CDB7DEB72497CDBFDEBF219639
:10053A00B0E02B160CF0C9C000E00219202E0E36CE
:10054A000CF46DC02F9244E650E0022D10E027FC17
:10055A001FEFB6DE062F2F9010E007FD1FEF0E5E8D
:10056A001F4F9801220F331F220F331F0EEE1EE278
:10057A00F901E00FF11F0591159125913591088335
:10058A0019832A833B832F9244E650E0022D10E020
:10059A0027FC1FEF95DE082F10E007FD1FEF4AE04A
:1005AA0050E08EDE062F10E007FD1FEF075F1F4F9A
:1005BA009801220F331F220F331F0EEE1EE2F9019C
:1005CA00E00FF11F45915591659175910881198147
:1005DA002A813B815FDE2F90088319832A833B831C
:1005EA004AE050E0022D10E027FC1FEF69DE082FD9
:1005FA00202F30E007FD3FEF220F331F220F331F5A
:10060A000EEE1EE2F901E00FF11F45915591659139
:10061A007591088119812A813B813CDE1CC10AE05F
:10062A0002150CF040C02F924AE050E0022D10E073
:10063A0027FC1FEF45DE062F2F9010E007FD1FEF66
:10064A00075F1F4F9801220F331F220F331F0EEE31
:10065A001EE2F901E00FF11F0591159125913591DF
:10066A00088319832A833B834AE050E0022D10E075
:10067A0027FC1FEF25DE082F202F30E007FD3FEF74
:10068A00220F331F220F331F0EEE1EE2F901E00F75
:10069A00F11F4591559165917591088119812A81BA
:1006AA003B81F8DDD8C0222D30E027FC3FEF220F36
:1006BA00331F220F331F0EEE1EE2F901E00FF11F66
:1006CA000591159125913591C6C0BEE62B160CF4FD
:1006DA006DC02F9244E650E0022D10E027FC1FEF78
:1006EA00EFDD062F2F9010E007FD1FEF0E5E1F4F64
:1006FA009801220F331F220F331F0AEB1EE2F90162
:10070A00E00FF11F05911591259135910883198301
:10071A002A833B832F9244E650E0022D10E027FC07
:10072A001FEFCEDD082F10E007FD1FEF4AE050E073
:10073A00C7DD062F10E007FD1FEF075F1F4F980167
:10074A00220F331F220F331F0AEB1EE2F901E00FBB
:10075A00F11F4591559165917591088119812A81F9
:10076A003B8198DD2F90088319832A833B834AE0D3
:10077A0050E0022D10E027FC1FEFA2DD082F202FEA
:10078A0030E007FD3FEF220F331F220F331F0AEB22
:10079A001EE2F901E00FF11F45915591659175919E
:1007AA00088119812A813B8175DD55C00AE002154D
:1007BA000CF040C02F924AE050E0022D10E027FCD6
:1007CA001FEF7EDD062F2F9010E007FD1FEF075F5A
:1007DA001F4F9801220F331F220F331F0AEB1EE20D
:1007EA00F901E00FF11F05911591259135910883C3
:1007FA0019832A833B834AE050E0022D10E027FC4C
:10080A001FEF5EDD082F202F30E007FD3FEF220F9C
:10081A00331F220F331F0AEB1EE2F901E00FF11F0B
:10082A004591559165917591088119812A813B817C
:10083A0031DD11C0222D30E027FC3FEF220F331F9C
:10084A00220F331F0AEB1EE2F901E00FF11F059197
:10085A001591259135912396CDBFDEBFDF91CF91BA
:02086A000895EF
:1002CA00C801BA0197FB092E07260AD077FD04D088
:1002DA000CD006D000201AF4709561957F4F0895CE
:1002EA00F6F7909581959F4F0895AA1BBB1B51E184
:1002FA0007C0AA1FBB1FA617B70710F0A61BB70B8C
:10030A00881F991F5A95A9F780959095BC01CD0130
:04031A0008950895A5
:10029E00042E152E262E372EBADF002E112E222ECC
:0402AE00332E08954E
:10021C00AEDF81F1E62ED52EC42EB32EA22E912E5A
:10022C00802E002D112D222D332DA1DF19F16E25DD
:10023C004C0D5D1D40385307F4F441387FEF5707E0
:10024C00FCF088279927AA27BB2770E2B695A795BB
:10025C0097958795379527951795079520F4880DD1
:10026C00991DAA1DBB1D7A9589F7032F3A2F292FAB
:10027C00182F92DF0AC00FEF102F2FE73FE7FACFAE
:0C028C000027102F202F302FF5CF0895F1
:10017A0092DF79F0632F6078220F331F432F5FE7F6
:10018A00451B55275040269530E8232B3327989452
:0A019A0003C0442755276627089587
:1000A000002329F4112319F4222309F4332308959A
:0000B00050
:1001A4007DDF11F19F938F938EE790E0332351F01D
:1001B400369527951795079548175907B4F44F5F57
:1001C4005F4FF4CF80959095019622239AF0000F0B
:1001D400111F221F481759071CF041505040F5CFFA
:1001E400002711272227332708C033270FEF102FAA
:0C01F4002FE7322F8F919F9159DF089563
:1000B000F7DF39F041585F4F342F220F36952795DF
:0400C000362B08953E
:10086C00CF93DF93CDB7DEB72497CDBFDEBF2196F4
:10087C00BEE62B1608F45AC044E6022D14DD10E037
:10088C000E5E1F4F9801220F331F220F331F0EEEE7
:10089C001EE2F901E00FF11F05911591259135919B
:1008AC002F9240E050E060E07FE3F3DC2F90088370
:1008BC0019832A833B8344E6022DF5DC092F4AE099
:1008CC00F2DC10E0075F1F4F9801220F331F220F3D
:1008DC00331F0EEE1EE2F901E00FF11F4591559109
:1008EC0065917591088119812A813B812F92D1DC08
:1008FC002F90088319832A833B834AE0022DD3DC93
:10090C00092F202F30E0220F331F220F331F0EEE42
:10091C001EE2F901E00FF11F45915591659175911A
:10092C00088119812A813B81B4DC50C00AE0021590
:10093C0008F038C04AE0022DB6DC10E0075F1F4F0C
:10094C009801220F331F220F331F0EEE1EE2F90106
:10095C00E00FF11F05911591259135912F9240E0F3
:10096C0050E060E07FE395DC2F90088319832A83A5
:10097C003B834AE0022D97DC092F202F30E0220F19
:10098C00331F220F331F0EEE1EE2F901E00FF11F91
:10099C004591559165917591088119812A813B8109
:1009AC0078DC14C0222D30E0220F331F220F331FAE
:1009BC000EEE1EE2F901E00FF11F05911591259144
:1009CC00359140E050E060E07FE363DC2396CDBFDF
:0809DC00DEBFDF91CF91089509
:1002B200992779E004C0991F941708F0941B001F36
:0802C2007A95C9F70095089533
:1004F0002227002400FF02C0040E251F440F551FB1
:100500004115510529F0169507951050004091F7B7
:06051000122F002D0895DA
:0E03F8009CDF1CF40024039401C0002408952F
:0E033200042E152E262E372E65DF002308958B
:10020600FCDF332332F049DF11F001E003C00027A1
:0602160001C00FEF089586
:06020000689460DF089520
:1000C400E6DF09F441C0E62ED52EC42EB32EA22EAF
:1000D400912E802E002D112D222D332DD8DF09F4E1
:1000E4003DC0842F952F8C199D09B9F072F4909519
:1000F400809501964C2D5D2D883180F53595279599
:10010400179507950197D1F708C08831E8F4B5949D
:10011400A794979487940197D1F766272EF0080D3A
:10012400191D2A1D3B1D09C0801A910AA20AB30A8F
:10013400082D192D2A2D3B2D332312F49FDF60E85F
:100144002FD001C0B3DF16C0002D112D222D332D69
:10015400D6F7A4DFC1F340E83427F5CF082D192DD5
:100164002A2D3B2D4C2D5D2D6E2D33235AF786DF22
:0601740060E8E8CF0895E9
:0E00920073D021F0662309F0F2DF98940895F0
:1000800000951095209530950F5F1F4F2F4F3F4FD4
:020090000895D1
:0E04860055DF19F00024039401C000240895EE
:0E0478005CDF1CF00024039401C000240895F2
:1004DC00042E152E262E372E2DDF002E112E222E19
:0404EC00332E08950E
:100340003F932F931F930F93002D112D222D332DAB
:1003500014DF09F44BC0E62ED52EC42EB32EA22EE8
:10036000912E802E0F911F912F913F9106DF61F109
:100370006E254C195D09403853073CF541387FEF35
:1003800057077CF180E27724632E522E412E302FC6
:10039000222711270027000F111F221F331F441C83
:1003A000551C661C771C28F0481859086A087B08F9
:1003B00004C0480C591C6A1C7B1C0AF001608A9519
:1003C00051F741505040EEDE16C00FEF102F2FE7CF
:1003D0003FE76623C9F364DEB9F3342D30E83425F2
:1003E000F3CF0027102F202F302FEECF0F900F903C
:0803F0000F900F90EACF089571
:1004940072DEF1F05523C2F04F31A8F44731C1F0B8
:1004A40050F44195495E05C03595279517950795F4
:1004B4004A95D1F70DC04751000F111F221F331F5A
:1004C4004A95D1F705C03FE7232F132F032F03C00D
:0804D400662309F0D3DD089551
:06041A00689480DF0895E4
:10031E0047E16627552726F0332312F4AADE60E85C
:04032E003ADF089515
:10040600042E152E262E372EF8DE002E112E222E25
:04041600332E0895E4
:10046400042E152E262E372E15DF002E112E222EA9
:04047400332E089586
:06029800E89414DF089554
:10042000C9019A01AB01B801A1E21A2EAA1BBB1B9C
:10043000FD010DC0AA1FBB1FEE1FFF1FA217B307B0
:10044000E407F50720F0A20BB30BE40BF50B661FD6
:10045000771F881F991F1A9469F76095709580958A
:0404600090950895D6
:0A266E0005900D920197E1F7089521
:10302200A0E0B1E0E2E5FFE280E390E01FDB08957B
:102AF0000F920F931F932F933F93BF93BFB7BF9333
:102B0000B091C000B4FF01C014C03091C6001CE6F3
:102B100021E000913501E02FF0E0E10FF21F30835A
:102B2000009135010F5F0093350105B0B0E20B262F
:102B300005B8BF91BFBFBF913F912F911F910F91DA
:082B40000F90FF91EF91189531
:102A8A000F931F932F933F93BF93BFB7BF93B8EF93
:102A9A00B0938500BFE2B093840000913601109193
:102AAA00370198012F5F3F4F20933601309337014A
:102ABA0008EE13E00217130750F4B0E0B0933601A2
:102ACA00B0933701B0913001B260B0933001BF9139
:102ADA00BFBFBF913F912F911F910F91FF91EF912E
:022AEA0018953D
:102FDD0056253375204925352E3166204625337506
:012FED0000E3
:102FCA0056253375204925332E3166204625332E62
:032FDA003166005D
:102FFF00562D2D2D20492D2D2D20462D2D2D2D2DAE
:01300F0000C0
:102EEE000000803FCDCCCC3D0AD7233C6F12833AF5
:102EFE0017B7D138ACC52737BD37863595BFD63312
:102F0E0077CC2B325F708930FFE6DB2E08E53C1E56
:042F1E006042A20D5E
:102F8200010000000A00000064000000E8030000E5
:102F920010270000A086010040420F008096980092
:082FA20000E1F50500CA9A3BAD
:102FAA0001000000100000000001000000100000F5
:102FBA0000000100000010000000000100000010E5
:102F22000100000008000000400000000002000054
:102F320000100000008000000000040000002000DB
:102F42000000000100000008000000400000000036
:10301000303132333435363738394142434445460E
:0130200000AF
:102FEE003031323334353637383961626364656671
:012FFE0000D2
:102EBA000000803F000020410000C84200007A4420
:102ECA0000401C460050C347002474498096184BA2
:102EDA0020BCBE4C286B6E4EF9021550EC78AD60E2
:042EEA00CAF249716E
:082F52000103630200013B8E44
:102F5A0020204C616B73686D6920536F6C6172201D
:012F6A000066
:082F6B000103630600017A4F27
:072F7300286E756C6C29004B
:082F7A00010363010001CB8E8D
:00000001FF
